:02000004080AE8
:1000000000000A08D0350A080000060006000501B5
:080010000402E50C00000000F1
:04001800A4300A08FE
:10001C0009480A4908B5884205D0094A824202D0EB
:10002C00121A02F085FE0748074A0021121A02F044
:10003C00A7FE064808BD00BF0000002034350A08A2
:10004C0074000020740000204505002045050020A8
:10005C0070B502F04BF80025054E064CA41BA40805
:10006C00AC4200D170BD56F8043B98470135F7E718
:10007C0010350A0830350A0800F080B808B500F0D1
:10008C00B7F8BDE8084001F0E9BF00F073BE00F01E
:10009C0071BE00F077BE00000C2008B5024A03497F
:1000AC0000F0B4FDFEE700BFB1090A08B8300A0839
:1000BC000078B0FA80F04009704701230370704754
:1000CC007047006A0368DB681847000010B50446E7
:1000DC00094B036001F026F9214601F096FB02F072
:1000EC000BF902F0EFF82046044B40F8043B01F00A
:1000FC0029FA204610BD00BF24310A080C310A0829
:10010C0010B50446FFF7E2FF20462421FFF7C1FF9C
:10011C00204610BD0EB44FF0200C002300B58CB05F
:10012C000DAA52F8041BCDE904C3CDE900120392C9
:10013C00016804AA1E2000F071FD0CB05DF804EB00
:10014C0003B0704708B5084B0246002918BF0B4690
:10015C0006480749FFF7DEFF0122064B1A7000F034
:10016C0029FC054B186008BDCD300A08CC000020D6
:10017C00D2300A08830000207800002037B5002414
:10018C00134B144D14481C7000F0C0FA2846FF2184
:10019C0000F0B4F90423012240F2D2412846009425
:1001AC0000F052FA4FF47A7001F018FF0123224646
:1001BC00CDE9004409490A4800F0CCFD09490A4838
:1001CC00FFF7A8FF094803B0BDE8304000F0A8BB1A
:1001DC0083000020800000207400002051010A08D8
:1001EC00E3300A08E9300A08CC0000208400002023
:1001FC002DE9F04F002485B049480DF10F030DF1A6
:10020C000E020DF10D018DF80D408DF80E408DF89C
:10021C000F40DFF80C9100F088FADFF808A19DF987
:10022C000D609DF90E709DF90F803F4D0DF10F0380
:10023C000DF10E020DF10D01484600F076FA4FF467
:10024C007A7001F0CBFE514628469DF90D20FFF740
:10025C0061FF28469DF90E203449FFF75BFF2846C5
:10026C009DF90F203249FFF755FF9DF90D30F0B283
:10027C00B3429DF90E209DF80E10CCBF1B1AC31A69
:10028C0058B2BA42FBB2CCBFCB1A5B1A9DF90FC065
:10029C0059B29DF80F30C4455FFA88F2CBBF9B1A58
:1002AC00D21A5BB253B2884221DD8342B8BF0346F7
:1002BC004FF0000B0A2BCDF800B01CDCFF235A4684
:1002CC0059461C4800F0E4FAA34518BF00211A4B0C
:1002DC004FF0010208BF1968184808BF01311960B6
:1002EC0000230093042300F0AFF95C469EE78B4299
:1002FC00B8BF0B46DCE7142B08DC59468C23FF22D5
:10030C000C4800F0C5FA4FF0010BDDE75B4659468F
:10031C00FF22084800F0BCFA4FF0020BD4E700BFF4
:10032C0074000020F1300A08CC000020F7300A08D5
:10033C00FD300A08840000207C0000208000002092
:10034C0070B51426D0E90053044606FB0356AE42A2
:10035C0004D0284600F070FD1435F8E7206800F052
:10036C0011FD204670BD8842F8B504460D46164670
:10037C0016D9904215D2A2F11406751AA1F11407E0
:10038C002C44B7421CD02CB13146204600F0BBFDAA
:10039C00337C2374304600F04FFD143E143CF0E7E0
:1003AC000ED0B5420CD02CB12946204600F0ABFD46
:1003BC002B7C2374284600F03FFD14351434F0E7F1
:1003CC00F8BD00232DE9F041C0E9003383604F688C
:1003DC0004469F420E4624DD4FF0140808FB07F03C
:1003EC0000F0C8FC0546E0B1D4E9001208FB02128B
:1003FC00FFF7B9FF206800F0C5FC2560A760D6E9BF
:10040C00007308FB0378B84509D03946284600F03C
:10041C0094FD3B7C143505F8043C1437F3E7736802
:10042C0063602046BDE8F08170B505228CB00421D4
:10043C00214800F04DF80322022101231F4800F04F
:10044C00C4F90023CDE90033029301F055FF1C4C95
:10045C0005462646694603A8FFF7B3FF03A906A87D
:10046C00FFF7AFFF174B06A946F8043B09A8FFF7A7
:10047C00A8FF09AA1E21304601F0AAFA09A8FFF725
:10048C005FFF06A8FFF75CFF0F4B03A823602562F4
:10049C00FFF756FF0D4B236001F02EFF4FF4165162
:1004AC0001F00CFF00F03EFF214601F069F96846AF
:1004BC00FFF746FF0CB070BD8000002084000020C8
:1004CC008C0000200C310A08E8310A0824310A0893
:1004DC0010B50446084662702170002102F048FBFA
:1004EC006078002102F044FB2078002102F051FBDF
:1004FC006078002102F04DFB204610BD81707047E2
:10050C0008B50121407802F033FBBDE808403220E9
:10051C0000F048BA10B504460121407802F028FBDF
:10052C00322000F03FFA0021207802F021FB32202B
:10053C0000F038FA6078002102F01AFBBDE8104098
:10054C00322000F02FBA70B504460E460825012162
:10055C00207802F00DFB322000F024FA16F0010F87
:10056C0014BF00210121607802F002FB322000F060
:10057C0019FA0021207802F0FBFA013D322000F03C
:10058C0011FA15F0FF054FEA5606E0D1012120784B
:10059C0002F0EEFA2946607802F0EAFA322000F016
:1005AC0001FA2946207802F0E3FA322000F0FAF939
:1005BC00607802F007FB10F0FF0503D10121607891
:1005CC0002F0D6FA322000F0EDF90121207802F089
:1005DC00CFFA322000F0E6F9281E18BF012070BDBA
:1005EC00F8B504461E4617460D46FFF789FF402115
:1005FC002046FFF7A8FF2046FFF78CFF2046FFF7A9
:10060C007FFF06F0030140392046C9B2FFF79BFF7C
:10061C002F44BD4205D0204615F8011BFFF793FF70
:10062C00F7E72046FFF776FF2046FFF769FFA17832
:10063C00204601F00F0141F08001FFF784FF2046B6
:10064C00BDE8F840FFF766BF2DE9F34701AC15464E
:10065C004FF0010C1A46A04600234FF03F0A164FEC
:10066C00DFF8589057F804E991FBFEF6C6B925B9A6
:10067C00BCF1000F01D0032B10D184F800A0013382
:10068C00042B04F10104EDD1C2F104019DF82830D2
:10069C004144FFF7A5FF02B0BDE8F0872570EEE7F7
:1006AC0006F00F0C19F80CC00EFB161184F800C0E4
:1006BC004FF0000CE3E700BF50310A0834310A0850
:1006CC0038B514460D4602F0F5FA01F00BFF02F0B6
:1006DC00F1FA4C2101F03CFF02F0ECFA03682946D8
:1006EC009B68984702F0E6FA036821469B68984796
:1006FC0002F0E0FABDE8384001F031BF0A460721AC
:10070C00FFF7DEBF0A460821FFF7DABF10B5044633
:10071C000021FFF7F3FF20460221FFF7F3FF2046ED
:10072C00BDE810400121FFF7E9BF2DE9F3411D465B
:10073C0040230F46164666248DF806308DF805309A
:10074C008DF8043002F0B6FA03681B69984700284C
:10075C0009DD02F0AFFA03685B699847012001F0EC
:10076C003DFC013CEED102F0A5FA03224C2101F034
:10077C00E8FE4FF0000801AC02F09CFA03681B691C
:10078C00984780B1B8F1020F09DC23783F2B06D9CA
:10079C0002F090FA03685B6998472070F5E708F15E
:1007AC0001080134E8E79DF8043003F03F033B7087
:1007BC009DF8053003F03F0333709DF8063003F0CD
:1007CC003F032B7002B0BDE8F08110B504460170F8
:1007DC0042708370012103EB430002F099FA6060D0
:1007EC00204610BD10B504460021007802F0D1F966
:1007FC00142000F0D7F82078012102F0CAF9BDE8E6
:10080C001040142000F0CEB870B506460C460825F2
:10081C0023064CBF01210021707802F0BAF9013D8A
:10082C003046FFF7DFFF640015F0FF05E4B2EFD1AF
:10083C0070BD13F0800FF8B50D46164614BFC021DD
:10084C00E02104461F465A0658BF41F010013306FA
:10085C0058BF41F00801700658BF41F004012A0648
:10086C0058BF41F002016B0658BF41F00101204610
:10087C00FFF7CAFF39462046FFF7C6FF3146204630
:10088C00FFF7C2FF29462046BDE8F840FFF7BCBF82
:10089C002DE9F04704460F460021904699469DF8F5
:1008AC0020A0FFF7B1FF00212046FFF7ADFF00218C
:1008BC002046FFF7A9FF00212046FFF7A5FF0026E1
:1008CC00A378F5B2AB4219D905EB4500AF4200F164
:1008DC00010200F1020308D1616801F8008061682F
:1008EC0001F80290616801F803A061680136CB5CE5
:1008FC008A5C095C2046FFF79CFFE1E7204600215B
:10090C00FFF782FF20460021FFF77EFF20460021E3
:10091C00FFF77AFF2046BDE8F0470021FFF774BFD0
:10092C0073B5044600250121007802F021F901215C
:10093C00607802F01DF92E46A378E9B28B4207D9F4
:10094C00002320461A460096FFF7A2FF0135F3E775
:10095C0002B070BD08B5024B1B689B68019308BDC3
:10096C00B001060808B5024B1B68DB68019308BD93
:10097C00B001060808B5024B1B681B69019308BD42
:10098C00B001060808B5024B1B685B69019308BDF2
:10099C00B001060808B5024B1B685B68019308BDE3
:1009AC009C01060808B5024B1B68DB68019308BD67
:1009BC009C01060808B5024B1B685B69019308BDD6
:1009CC009C01060808B5024B1B685B6C019308BDC3
:1009DC00D001060808B5024B1B689B6C019308BD3F
:1009EC00D001060808B5024B1B68DB6C019308BDEF
:1009FC00D001060808B5024B1B685B6D019308BD5E
:100A0C00D001060808B5024B1B681B6A019308BD90
:100A1C00C401060808B5024B1B685B6A019308BD4C
:100A2C00C401060808B5024B1B689B6A019308BDFC
:100A3C00C401060808B5024B1B68DB6A019308BDAC
:100A4C00C401060808B5024B1B681B6B019308BD5B
:100A5C00C401060808B5024B1B685B6B019308BD0B
:100A6C00C401060808B5024B1B689B6B019308BDBB
:100A7C00C401060808B5024B1B681B6C019308BD2A
:100A8C00C401060808B5024B1B68DB6C019308BD5A
:100A9C00C401060808B5024B1B681B6E019308BD08
:100AAC00C401060808B5024B1B68DB6C019308BD3A
:100ABC00AC01060808B5024B1B689B6D019308BD81
:100ACC00AC01060808B5024B1B68DB6D019308BD31
:100ADC00AC01060808B5024B1B681B6E019308BDE0
:100AEC00AC01060808B5024B1B685B6E019308BD90
:100AFC00AC01060808B5024B1B689B6E019308BD40
:100B0C00AC01060808B5024B1B68DB6E019308BDEF
:100B1C00AC01060808B5024B1B681B6F019308BD9E
:100B2C00AC01060808B5024B1B685B6F019308BD4E
:100B3C00AC01060808B5034B1B68D3F88030019351
:100B4C0008BD0000AC01060808B5034B1B68D3F8C0
:100B5C009030019308BD0000AC01060808B5024BAB
:100B6C001B68DB69019308BDB401060808B5024B8C
:100B7C001B681B6A019308BDB401060808B5024B3B
:100B8C001B681B68019308BDD801060808B5024B09
:100B9C001B685B68019308BDD801060808B5024BB9
:100BAC001B689B68019308BDD801060808B5024B69
:100BBC001B681B69019308BDD801060808B5024BD8
:100BCC001B685B69019308BDD801060808B5024B88
:100BDC001B689B69019308BDD801060808B5024B38
:100BEC001B68DB69019308BDD801060808B5024BE8
:100BFC001B681B6A019308BDD801060808B5024B97
:100C0C001B689B6C019308BDC001060808B5024B1C
:100C1C001B685B6B019308BDA801020808B5024B69
:100C2C001B685B6D019308BDA801020808B5024B57
:100C3C001B68DB6E019308BDA801020808B5024BC6
:100C4C001B681B6F019308BDA801020808B5024B75
:100C5C001B685B68019308BDA401060808B5024B2C
:100C6C001B685B69019308BDA401060808B5034B1A
:100C7C001B68D3F89030019308BD0000A40106084E
:100C8C0008B5034B1B68D3F89C30019308BD0000DA
:100C9C00A401060808B5024B1B685B68019308BDEC
:100CAC00C801060808B5024B1B689B68019308BD78
:100CBC00C801060808B5024B1B68DB68019308BD28
:100CCC00C801060808B5024B1B681B69019308BDD7
:100CDC00C801060808B5024B1B685B69019308BD87
:100CEC00C801060808B5024B1B689B69019308BD37
:100CFC00C801060808B5024B1B68DB69019308BDE7
:100D0C00C801060808B5024B1B681B6A019308BD95
:100D1C00C801060808B5024B1B681B6B019308BD84
:100D2C00C801060808B5024B1B685B6B019308BD34
:100D3C00C801060808B5024B1B681B6C019308BD63
:100D4C00C801060808B5024B1B685B6C019308BD13
:100D5C00C801060808B5024B1B685B6A019308BD05
:100D6C00CC01060808B5024B1B68DB6B019308BD70
:100D7C00CC01060808B5024B1B681B68019308BD23
:100D8C00A001060808B5024B1B685B68019308BDFF
:100D9C00A001060808B5024B1B689B68019308BDAF
:100DAC00A001060808B5024B1B685B6A019308BDDD
:100DBC00A001060808B5024B1B681B6B019308BD0C
:100DCC00A001060808B5024B1B68DB6B019308BD3C
:100DDC00A001060808B5024B1B681B6C019308BDEB
:100DEC00A001060808B5024B1B685B6C019308BD9B
:100DFC00A001060870B5002604460D4640F8086FA1
:100E0C00FFF7E0FD28462570FFF7A8FE2046666038
:100E1C0070BD000002220020044B1A60044B054AEE
:100E2C00C3E900009A60FFF711BF00BFBC000020AF
:100E3C00B00000200000FFFF10B504460068FFF76B
:100E4C00A1FF204610BD10B50446006808B1FFF79D
:100E5C0099FF0023C4E90133236010BD38B5044663
:100E6C000D4600680131FFF795FF10B1C4E900058C
:100E7C00012038BD10B50368044623B143688B428A
:100E8C0001D3012010BD2046FFF7E8FF0028F9D060
:100E9C00A368002BF5D122681370F2E770B50E46EB
:100EAC00114604461546FFF7E5FF20B92046FFF72B
:100EBC00CAFF204670BD2A4631462068A56001F065
:100ECC0037FF00212268A368D154F2E738B50546F4
:100EDC0000680C4668B16A688B689A4207D3096847
:100EEC0001F0B3FFA368AB600023A36038BDFFF72C
:100EFC0049FF23682B6063686B60A368AB600023B9
:100F0C00C4E90033F1E7002310B50446C0E900330F
:100F1C0083600373FFF7DAFF204610BD884210B5DB
:100F2C000B46044604D0096821B19A68FFF7B6FF56
:100F3C00204610BDFFF787FFFAE7002310B50446E3
:100F4C00C0E9003383600373FFF7E8FF204610BD50
:100F5C00F8B506460D4600248F18BD420CD03368F8
:100F6C0030469B6815F8011B9847031E01DB1C4497
:100F7C00F3E7002C08BF1C462046F8BD70B50546AB
:100F8C000C46084649B101F068FF2B680246214621
:100F9C002846BDE87040DB68184770BD03689B6845
:100FAC00184738B50D210546FFF7F8FF0A2104460E
:100FBC002846FFF7F3FF204438BD0023012A98BFD1
:100FCC000A2230B58BB00C468DF8243009A9254681
:100FDC00B4FBF2F404FB1253DBB2092B94BF303395
:100FEC003733DBB2AA4201F8013DF0D9FFF7C6FF57
:100FFC000BB030BD2DE9F04186B000AF05460E4672
:10100C00381D142114463B60FFF7CCFE13280ED874
:10101C002846391DFFF7B2FF04461EB12846FFF7DC
:10102C00C0FF044420461837BD46BDE8F08100F1EE
:10103C00080323F00703E846ADEB030D2246411CE1
:10104C003B686846FFF7AEFE69462846FFF796FFF9
:10105C000446C546E1E780680368DB6818477047BB
:10106C00084611B10B685B681847704770477047AA
:10107C007047704738B504460D4600682E2101F0C4
:10108C00D0FE23680246C01A286020B1137803B141
:10109C0001322068226038BD10B504460C21FEF7E1
:1010AC00F8FF204610BD10B504460421FEF7F1FFF1
:1010BC00204610BD10B504460421FEF7EAFF204679
:1010CC0010BDFFF78FBC08B501F0B5FEB0FA80F08B
:1010DC00400908BD704710B50C4601F00DF984426B
:1010EC0005D101F009F9BDE8104001F0EBB801F0B1
:1010FC003DF9844202D101F039F9F4E701F090FD99
:10110C00844205D101F08CFDBDE8104001F0A9B975
:10111C002CB123682046BDE810405B68184710BD11
:10112C000B6803604B68436013B15A6801325A6014
:10113C00704738B5054608460C4601F08EFE214630
:10114C0002462846BDE8384001F0B9BC70B50446EB
:10115C0008460D4601F081FE2368024629462046CA
:10116C00BDE87040DB68184707B503688DF80710B9
:10117C000122DB680DF10701984703B05DF804FB11
:10118C000EB403B503AB53F8042B0021006A019392
:10119C00FFF730FF02B05DF804EB03B070470A684C
:1011AC0010B502604A6842600022C0E90222026166
:1011BC008C688A608460CC68CA60C4600C690A61FF
:1011CC00046110BD2DE9F74F4FF0140AD0E90084EB
:1011DC00174645460AFB04F40093174BA4105C43D6
:1011EC00002C21DD66100AFB06F005EB0009B9F8AE
:1011FC0004B03A465F4528BF5A462858019101F081
:10120C0034FE00284FF0010301990BD15F4503D147
:10121C00009A13703446E3E7FCD9A61B09F11405B8
:10122C00013EF7E7F9DBF5E7A5EB08050248AD1041
:10123C00684303B0BDE8F08FCDCCCCCC7FB503694F
:10124C00057E019103B3F9B1002600F10C0403965D
:10125C0003A901A8FFF70EFF0146A8B10DF10B037E
:10126C002046039A8DF80B60FFF7ACFF9DF80B300E
:10127C0053B11423246803FB0044B4F9063008343A
:10128C00002BA8BFDDB2E3E7284604B070BD000018
:10129C0010B5094C2378BFF35B8FDB0709D42046CC
:1012AC00FEF706FF28B12046FEF707FF034801F0C2
:1012BC0029FD034810BD00BFC400002079100A08A6
:1012CC000000002010B5094C2378BFF35B8FDB07BF
:1012DC0009D42046FEF7ECFE28B12046FEF7EDFEC1
:1012EC00034801F00FFD034810BD00BFC8000020EB
:1012FC00E1100A080400002038B500250446C0E9B6
:10130C000055C0E904558560856140F8245FFFF7FE
:10131C0059FBFFF7BDFFE061FFF7D4FF2573206297
:10132C00204638BD10B50A4C2378BFF35B8FDB0722
:10133C000CD42046FEF7BCFE40B10648FFF7DCFF9C
:10134C002046FEF7BAFE044801F0DCFC014810BD53
:10135C00C0000020D0000020F5180A080023024A23
:10136C0002490348FFF76ABCDD160A0869160A0829
:10137C00E9150A0800231A4619461846FFF75EBC01
:10138C0038B5046805467CB16368013B63605BB9A2
:10139C00236820469B689847A368013BA3601BB950
:1013AC0023682046DB689847284638BD37B5044685
:1013BC008D686846FFF7B4FE6A462946204601F060
:1013CC009FFA01A8FFF7DCFF204603B030BD37B50C
:1013DC000446CD686846FFF7A3FE6A4629462046B8
:1013EC0001F06AFA01A8FFF7CBFF204603B030BD2D
:1013FC0037B504460D696846FFF792FE6A462946E2
:10140C00204601F000FA01A8FFF7BAFF204603B00E
:10141C0030BD000070B58AB00D46014604A8FFF738
:10142C00C5FF144E04A801F083FAE8B1684604A97C
:10143C00FFF7CDFF31460298FFF745FE044610B189
:10144C002C1E18BF012401A8FFF79AFF002CE9D02D
:10145C00684604A9FFF7CCFF684601F00BFA286038
:10146C0001A8FFF78DFFDDE705A8FFF789FF0AB09C
:10147C0070BD00BF54310A0837B50C461B492046D5
:10148C00154601F0D8FC50B900F036FF4FF4165158
:10149C0000F014FF03B0BDE8304000F02DBF204633
:1014AC00134901F0C8FC50B900F060FF4FF416511D
:1014BC0000F004FF03B0BDE8304000F057BF2046F9
:1014CC000C4901F0B8FC78B94FF4165301A9284621
:1014DC000193FFF79FFF01F0A3FB019900F0BEFF02
:1014EC0001F09EFB03B030BD0020FBE759310A0828
:1014FC0060310A0863310A0870B51426D0E900532C
:10150C00044606FB0356AE4205D005F10800FFF772
:10151C00F3FF1435F7E72068FFF734FC204670BD65
:10152C0070B50446D0E9005305EB0316AE4204D067
:10153C002846FFF781FC1035F8E72068FFF722FCFE
:10154C00204670BD10B504460C30FFF7D5FF204681
:10155C00FFF7E6FF204610BD10B50446034B40F8DC
:10156C00043BFFF7EFFF204610BD00BF0C310A080B
:10157C0010B50446FFF7F0FF20462421FEF789FD45
:10158C00204610BD10B50446024B0360FFF7E4FF84
:10159C00204610BD00320A0810B50446FFF7F2FFD2
:1015AC0020462421FEF775FD204610BD0022C0E91F
:1015BC000022826010B50C680A6004604C684A60B6
:1015CC0044608C688A60846010BD10B50446036862
:1015DC001868FFF70FFA204610BD00002DE9F04FF8
:1015EC0087B003931C4B80465B688946C3F30803A2
:1015FC0016466BB9FFF796FE044600F12403406AC9
:10160C000593FFF75EFD237B2BB105A8FFF7DDFFEC
:10161C0007B0BDE8F08F01235FFA89F92373D4E991
:10162C00005305EB830AAA4512D055F8047B3146CA
:10163C00381DFFF703FE8145F5D3039A3B680092F2
:10164C00D3F808B04A46334641463846D847EAE70D
:10165C0000232373D9E700BF00ED00E02DE9F74F1D
:10166C009B461A4B80465B688946C3F308031646B3
:10167C006BB9FFF757FE044600F12403406A01934F
:10168C00FFF71FFD237B2BB101A8FFF79EFF03B0D3
:10169C00BDE8F08F0123F6B22373D4E9005305EBB8
:1016AC00830A55450ED055F8047B5946381DFFF773
:1016BC00C5FD8642F5D33B684A4641463846DB6851
:1016CC009847EEE700232373DEE700BF00ED00E050
:1016DC002DE9F341164B05465B680F46C3F308032F
:1016EC001BBBFFF71FFE044600F12403406A019365
:1016FC00FFF7E7FCD4E90063462406EB8308B0450A
:10170C0009D101A8FFF761FFA542B4BF0020012059
:10171C0002B0BDE8F08156F8040B39460430FFF7EF
:10172C008DFD8442A8BF0446E9E70020F0E700BF26
:10173C0000ED00E0F8B5D0E901539D4204460E4699
:10174C000DDB6F1C002F006804DDB900FFF722FBD6
:10175C0018B9F8BDFFF716FB00202060A7602768BA
:10176C00626807EB85019200A2EB8502081D01F06F
:10177C00EDFA47F825606368012001336360E8E700
:10178C0037B5044600F12403406A01930D46FFF778
:10179C0098FCD4E9003203EB8202934219460AD03A
:1017AC0009680433A942F8D101A8FFF70EFF002500
:1017BC00284603B030BD29462046FFF7BBFF05463F
:1017CC000028F1D06368012B01D1FFF7C7FD01A8F8
:1017DC00FFF7FBFEECE70B4670B5044605C800EBC3
:1017EC00820282420FD001461D6851F8046BAE4252
:1017FC0007D1521A01F0AAFA01206368013B636019
:10180C0070BD0846EDE70020FAE71FB5044600F16D
:10181C002403406A01910393FFF753FC204601A96E
:10182C00FFF7D9FF18B163680BB9FFF7A3FD03A845
:10183C00FFF7CBFE04B010BD182370B50446D0E9F9
:10184C00045603FB0656AE4215D0204605F1100196
:10185C00FFF7C1FF63680BB9FFF78CFDE0692969DD
:10186C000368DB689847696919B1206A0368DB680B
:10187C0098471835E7E71826D4E9045306FB0356B6
:10188C00AE4204D02846FFF7D7FA1835F8E7002304
:10189C00636170BD73B50446FFF76CFD04F124035E
:1018AC00606A0193FFF70DFC2046FFF7C5FF01A806
:1018BC00FFF78BFE606A08B1FFF78CF8D4E904538C
:1018CC00182606FB0356AE4204D02846FFF7B4FA9E
:1018DC001835F8E72069FFF755FA2068FFF752FA38
:1018EC00204602B070BD00000148FFF7D3BF00BF17
:1018FC00D00000208842F8B504460D46164615D98E
:10190C00904214D2A2F11406751AA1F114072C44BA
:10191C00B7421AD01CB131462046FFF740FC06F105
:10192C000800FFF7E9FD143E143CF1E70DD0B54279
:10193C000BD01CB129462046FFF731FC05F10800FD
:10194C00FFF7DAFD14351434F1E7F8BD8842F8B529
:10195C0004460D46164614D9904213D2A2F1100635
:10196C00751AA1F110072C44B74218D01CB131469E
:10197C002046FFF7C8FA3046FFF75EFA103E103CDF
:10198C00F2E70CD0B5420AD01CB129462046FFF72D
:10199C00BAFA2846FFF750FA10351034F2E7F8BDC2
:1019AC0070B50E1E054611DD3001FFF7E3F9044654
:1019BC0058B1D5E9001201EB0212FFF7C7FF2868F6
:1019CC00FFF7E0F901202C60AE6070BD0024F6E753
:1019DC002DE9F04F90460023462295B00391D8F89C
:1019EC00041004469942C0E90033C0E90233C0E94F
:1019FC000433CDE9083302760A9323DCD8E9005787
:101A0C00142303FB0757AF423BD029460BA8FFF723
:101A1C007AFA0BA90FA8099EFFF775FADDE90913ED
:101A2C0099421BDA089B099A03EB0616314603EB25
:101A3C00021206F11000FFF789FFEEB9099B013382
:101A4C00099311E008A8FFF7ABFF0028D6D108A82E
:101A5C00FFF766FD204615B0BDE8F08F013108A8F0
:101A6C00FFF79EFF0028DDD10FA8FFF7E5F90BA8C3
:101A7C00FFF7E2F91435C6E730460FA9FFF743FA32
:101A8C00DCE700264FF01409CDE90B660D96DDE975
:101A9C0008239E427CDA3301D35806930BB90136E6
:101AAC00F5E70023079309FB06F30BAD029307A997
:101ABC0006A8FFF7DFFA82460028F0D04FF00003AB
:101ACC0001468DF817302846079A0DF11703FFF7DA
:101ADC0079FB9DF817700190002F4AD1BDF81C308E
:101AEC00CDE91177ADF840304FF6FF73CDF83CA03F
:101AFC00ADF842301397D5E90132934217DB03F16D
:101B0C00010ABAF1000F30DD09FB0AF0FFF732F9D8
:101B1C00834660B3D5E9001209FB0212FFF7EAFE17
:101B2C002868FFF72FF9C5F800B0C5F808A02B6896
:101B3C00019A09FB023A6A68514609FB02320AF122
:101B4C001400FFF7D7FEBAF1000F03D050460FA9CF
:101B5C00FFF725FB6B6801336B6011A8FFF7CCFC1A
:101B6C003FB10BA8FFF7C8FC71E7BB46D8E70127CC
:101B7C00F3E7019B2D6809FB0355069B1B782BB9DA
:101B8C00D8F80030029A13441B7CEB8008358EE7A2
:101B9C002168226062686360A36809920A9A0A93BA
:101BAC00E368A2600B9A0B932369E2600C9A0C9386
:101BBC00636922610D9A0D93039B089162612376F0
:101BCC00CFE70000F0B504462646174687B00D4611
:101BDC0068461946FEF7F5FB0B4B694646F8043B85
:101BEC0003A8FEF7EEFB394603AA3046FFF7F0FEDA
:101BFC0003A8FEF7A5FB6846FEF7A2FB2046034BA5
:101C0C002562236007B0F0BD0C310A08E8310A08E0
:101C1C00F0B50F4685B038461C4916461D460A9C41
:101C2C0001F009F9C0B9A4B1294601A8FFF7BEFC1F
:101C3C002420174901F062F8054630B101AB324659
:101C4C002146FFF7BFFF134B2B6001A8FEF778FB73
:101C5C002C46204605B0F0BD38460F4901F0EBF894
:101C6C0090B9002CF5D0294601A8FFF79FFC242041
:101C7C00074901F043F805460028E6D032462146D4
:101C8C0001ABFFF79FFFE0E70024E2E76B310A08A6
:101C9C0079330A0800320A086F310A08014B024AEC
:101CAC001A607047CC00002080310A082DE9F047FB
:101CBC00089DD0F8209004460E461746984600F032
:101CCC001BFB81454DD02B79190704D520466A6939
:101CDC005449FFF755FAB8F1000F0DD05B2120469F
:101CEC00FFF742FA41462046FFF730FA23680222FA
:101CFC002046DB684C4998472B79DA0724D5D5F870
:101D0C0008802F21404601F0C4F808B100F1010809
:101D1C0041462046FFF71AFA2B799B0708D53A2142
:101D2C002046FFF721FA2046EA684049FFF728FAD7
:101D3C002A79236812F0040F20464FF00202DB6868
:101D4C0014BF3B493B4998472B7958071DD5296946
:101D5C000B461A4613F8010B60B1202808D119461E
:101D6C00F7E7354800F0A9FC0028ACD0BDE8F087B7
:101D7C002828EED12368521A2046DB68984723683E
:101D8C0004222046DB682D49984700213846FEF78F
:101D9C004DFF01462046FFF7D9F923680222204661
:101DAC00DB68244998471EB131462046FFF7CEF92F
:101DBC002B7913F0300F2CD023682149DB680222D9
:101DCC00204698472B79D9060AD523680722204646
:101DDC001C49DB6898472046AA691B49FFF7D0F9D4
:101DEC002B799A0611D5DB0605D5236802222046ED
:101DFC00DB680F4998472368204614490A22DB68A0
:101E0C0098472046E969FFF7A1F95D212046FFF7C5
:101E1C00ABF923682046BDE8F0470222DB680C4989
:101E2C00184700BF84310A088B310A08F4300A08BD
:101E3C008E310A0893310A085004002091310A08A7
:101E4C0096310A0899310A08A1310A08A4310A0806
:101E5C00AF310A082DE9F04385B0D0F82090054643
:101E6C000F4690461E460C9C00F046FA814505D163
:101E7C00494800F022FC002840F08A804FF000090D
:101E8C002B6A464A01A8019203938DF8089000F042
:101E9C0078FD49464046FEF7C9FE8046404901227E
:101EAC0001A800F0FDFD4146FFF743F93FB13D4964
:101EBC00012201A800F0F4FD3946FFF73AF93EB1D2
:101ECC003949012201A800F0EBFD3146FFF731F949
:101EDC002379DF070ED5A6682F21304600F0D9FFF5
:101EEC0000B1461C3149012201A800F0D9FD314650
:101EFC00FFF71FF923799E0707D52D49022201A868
:101F0C0000F0CEFDE16800F049FD2379580714D5A7
:101F1C00266933461F4613F8012B2AB1202A01D11A
:101F2C001E46F7E7282AF5D10222224901A800F023
:101F3C00B7FD3146BA1B00F0C2FD2379190707D54E
:101F4C001D49012201A800F0ABFD616900F038FDCC
:101F5C002379DA0608D5042218490DEB020000F0AB
:101F6C009FFDA16900F01AFD23799B0607D5144942
:101F7C00062201A800F094FDE169FFF7DAF801A848
:101F8C0000F0E9FC286A022203680E49DB689847D6
:101F9C0005B0BDE8F08300BF50040020D0310A0822
:101FAC005E310A08B2310A080C340A08B4310A0846
:101FBC00B6310A08B9310A08E7300A08BC310A08F8
:101FCC00C1310A08AF310A08024B1A68024B1A6079
:101FDC00704700BF08000020F80000200021FEF729
:101FEC003DBE00000022014B9A607047FC000020AF
:101FFC00014B1860704700BF0C00002008B5134B54
:10200C0043B100F079F903681B699847002801DD9A
:10201C00AFF300800E4B43B100F002FE03681B6966
:10202C009847002801DDAFF300800A4B0BB1AFF3EA
:10203C000080094B43B100F099F903681B6998477C
:10204C00002801DDAFF3008008BD00BF00000000D8
:10205C0000000000000000000000000008B5FFF7C1
:10206C00CDFFFEF7A7FC014B186008BD80040020D3
:10207C000548064A08B5121A054900F059FE054BE9
:10208C00054A1A6008BD00BF0040024004400240EF
:10209C0030350A08004002401E1C279A002307B561
:1020AC001A466FF077010093FEF7EAFD03B05DF876
:1020BC0004FB000007B543880A2B08D0502B0BD12A
:1020CC00094B1B684BB103B05DF804EB1847FFF7E5
:1020DC00E5FF03B05DF804FB00231A466FF07701AF
:1020EC000093FEF7CDFDF4E710010020002110B5A0
:1020FC001148FEF777FE114B1A68114B9A420CBF30
:10210C00012200220F4B1A7001D0FFF7B1FFFEF72E
:10211C0041FC044600F04AFE0B4B13B12046AFF3D2
:10212C00008000210848FEF71DFEBDE8104000218C
:10213C000648FEF79BBD00BFFD1F0A080040024089
:10214C001E1C279A0C01002000000000C1200A0868
:10215C007047F8B50E46002400F10807051D17F866
:10216C00011D0A223046FEF728FFAF42044401D17C
:10217C002046F8BD002CF2D02E213046FEF70EFF83
:10218C000444ECE710B504461821FDF782FF204605
:10219C0010BD000010B50446044B1122002140F87C
:1021AC00043B00F0EDFD204610BD00BF64320A0870
:1021BC000346074A10B543F8042B01F1100251F8FD
:1021CC00044B914243F8044BF9D10A781A7010BDB4
:1021DC0064320A08024AC0E90021042202757047E1
:1021EC0064320A0810B59DF8084044EA032404231D
:1021FC0044EA024444EA01644460037510BD0000E3
:10220C0013B5044C04609DF810400094FFF7EAFFEE
:10221C0002B010BD64320A084174704770477047B1
:10222C0008B50021007CFEF7D1FC40EAE07008BD47
:10223C0008B50121007CFEF7C9FC40EAE07008BD3E
:10224C0008B5007CFEF7BAFC20EAE07008BD08B5C2
:10225C00007CFEF7ABFC20EAE07008BD38B5044604
:10226C00007C0D46FEF7AAFC002801DC607C28B13E
:10227C002946207CFEF7B2FC20EAE07038BD007CD9
:10228C00FEF7B4BC10B504461421FDF702FF20463E
:10229C0010BD704710B54FF47A7304460846002100
:1022AC00C4E90113044B20742360012311466374A9
:1022BC00FEF764FC204610BD78320A080022007C30
:1022CC00FEF764BC007CFEF769BC000010B5044648
:1022DC001422002100F054FD054B20466360054B91
:1022EC00E36040F2011323818123238210BD00BFE0
:1022FC00440100204502002030B50E4D87B001A8E6
:10230C00FFF7E4FF2978BFF35B8F11F001040ED1C6
:10231C002846FDF7CDFE50B1214601AA0648FFF72D
:10232C00B9FF2846FDF7C9FE044800F0EBFC024853
:10233C0007B030BD140100201C01002029220A081E
:10234C0010B504461422002100F01AFD054B20465E
:10235C006360054BE36040F20113238181232382E8
:10236C0010BD00BFC6020020C703002010B50E4CE4
:10237C0086B001A8FFF7E4FF2378BFF35B8FDB0780
:10238C000ED42046FDF794FE50B1012101AA074856
:10239C00FFF780FF2046FDF790FE054800F0B2FCE9
:1023AC00024806B010BD00BF18010020300100200B
:1023BC009F220A0870474174704708B5007CFEF7ED
:1023CC0059FB20EAE07008BD08B5007CFEF72AFB3B
:1023DC0020EAE07008BD08B5007CFEF733FB40EA4C
:1023EC00E07008BD08B5007CFEF724FB40EAE07005
:1023FC0008BD007CFEF72EBB70B5467C04460D462E
:10240C002EB12946207CBDE87040FEF703BB007C52
:10241C00FEF730FB0028F4DC304670BD10B50446E6
:10242C001421FDF736FE204610BD000010B54FF408
:10243C007A730446084611460022C4E90123044B72
:10244C002074236001236374FEF724FB204610BD27
:10245C00A8320A080023007CFEF714BB0022FFF709
:10246C00F9BF007CFEF7CEBA7047F8B506461546A4
:10247C000C468F18BC4206D0336830469B6814F863
:10248C00011B9847F6E72846F8BD0022007CFEF7B2
:10249C0021BB0021007CFEF725BB0021007CFEF750
:1024AC0029BB0021007CFEF72DBB0021007CFEF730
:1024BC0031BB10B504461421FDF7EBFD204610BDD1
:1024CC0010B54FF47A73044608460021C4E9011391
:1024DC00034B114623602074FEF72CFB204610BDE5
:1024EC00D8320A080023007C1A461946FEF7DABADD
:1024FC007FB500221423CDE90122ADF804300B780E
:10250C00007C8DF808304B680393CB6804930B7AEE
:10251C0001A90593FEF718FB07B05DF804FB1FB586
:10252C00003B8DF800104FF0640118BF012303919C
:10253C00694601928DF80830FFF7DAFF05B05DF8B7
:10254C0004FB0123FFF7EBBF0022007CFEF7B2BABD
:10255C00C9B2FFF7F9BF0022007CFEF7B3BA012124
:10256C00FFF7F9BF10B543680446013B436063B9FC
:10257C0003689B689847A368013BA3602BB9236849
:10258C002046BDE81040DB68184710BD00224068AB
:10259C001146FEF797BBF0B5154689B011220E46D1
:1025AC000446002103A800F0EBFB284600F055FC84
:1025BC00002781B273682846009703AAFEF71EFB1A
:1025CC0030B139462046FFF705FE204609B0F0BD74
:1025DC00204603A9FFF7ECFDF7E7002240681146FF
:1025EC00FEF790BB002240681146FEF79BBB002211
:1025FC004068FEF78FBB0022406881F00101FEF7B6
:10260C0079BB002340681A461946FEF76BBB0023C2
:10261C0040681A461946FEF75DBB00224068114619
:10262C00FEF740BB002202214068FEF743BB0023AB
:10263C0040681A46FEF72EBB0422024B5A60024A2F
:10264C001A6070474804002000330A0800234068D1
:10265C001A46FEF71FBB002202214068FEF72ABB78
:10266C00002240681146FEF71DBB0022406811464F
:10267C00FEF728BB002340681A461946FEF72ABB12
:10268C00002340681A461946FEF72CBB002140680F
:10269C00FEF750BB00214068FEF754BB0022406897
:1026AC0081F00101FEF726BB00224068FEF732BB29
:1026BC00002240681146FEF735BB002240681146E7
:1026CC00FEF720BB70B515468EB0044608A8FFF780
:1026DC0061FD1122002103A800F052FB00262846C0
:1026EC0000F0BBFB0A4B009681B25B68284603AA3C
:1026FC00FEF784FA30B131462046FFF76BFD2046D9
:10270C000EB070BD204603A9FFF752FDF7E700BFDE
:10271C0048040020024B034A1A6000225A6070479A
:10272C00500400203C330A08012200F1100313F876
:10273C00101C1846012908D153F8041C02EB410265
:10274C00013A03F11003F2D17047022904BF53F888
:10275C00041C5218F4E70EB42DE9F04187B000AF19
:10276C0007F1340555F8048B04462B4642461021DC
:10277C0007F108007D60FEF715FB0F281BD900F14F
:10278C00080323F007036E46ADEB030D4246411CD4
:10279C002B4668467D60FEF705FB021E04DD2368B0
:1027AC00694620469B689847B5461C37BD46BDE830
:1027BC00F04103B070470028F7D0236802469B68AD
:1027CC00204607F108019847EFE738B50B68044637
:1027DC0003604D6843689D4208D015B16B680133A6
:1027EC006B60606808B1FFF7BDFE656038BD07B56A
:1027FC0003688DF8071001229B680DF107019847BB
:10280C0003B05DF804FB0B461146002210B50446DC
:10281C00C0E9002283600BB9204610BDFFF7D5FF3D
:10282C00FAE70346806820B30278032A1AD8DFE857
:10283C0002F00417021B052070471B685A68436896
:10284C00D05C2D2812D0A0F13003092B0ED974289E
:10285C000ED066280CD0A0F16E0358425841704738
:10286C0006207047002070470420704703207047F3
:10287C000220704710B50446FFF7D3FF02280ED094
:10288C00C31EDBB2012B14D82268A36850685B68A6
:10289C000A22BDE810400021184400F08BBB2268CE
:1028AC00A36852685B68D05CA0F17403584258412D
:1028BC0010BD0020FCE700000B461146002210B5AD
:1028CC000446C0E900220D48C4E90202A3B11A78FB
:1028DC00032A06D082B90A6850685A68825C6E2A4C
:1028EC0007D00A68586852689B6802441B1AA26099
:1028FC00E3602046FFF769FF204610BDB1310A089E
:10290C0038B500250B4604461146C0E90055C0E910
:10291C000255C0E904554BB11A78012A06D103F1CE
:10292C001002DB6882604361FFF74FFF204638BD21
:10293C0010B54369044663B18068013BE060103018
:10294C00A0602061636113B1FFF7EEFEA06001206F
:10295C0000E0184610BD10B57D210446FFF747FF77
:10296C0001232046237110BD08B50379012B02D039
:10297C00022B04D008BD2C21FFF739FFFAE73A21CE
:10298C00FAE710B50446FFF7EFFF20467B21FFF76F
:10299C002EFF00232046237110BD000038B50446DD
:1029AC000D46FFF7E1FF236820462A46DB68034902
:1029BC00984701232046237138BD00BFF4300A0824
:1029CC0038B504460D46FFF7CFFF236820462A464C
:1029DC00DB680349984701232046237138BD00BFAB
:1029EC0070330A082DE9F0470D4690462221044623
:1029FC002F46FFF7FCFEDFF8A490A8444745BA46E3
:102A0C003DD017F8016B222E06D05C2E04D0304638
:102A1C0000F086F90028F1D12368294620469B68EE
:102A2C00AAEB050298475C212046FFF7E0FE0D2E2D
:102A3C000AD8072E1CD9A6F10803052B18D8DFE8F5
:102A4C0003F00D0F11171315222E01D05C2E0FD190
:102A5C0031462046FFF7CBFE3D46CFE76221F8E733
:102A6C007421F6E76E21F4E76621F2E77221F0E7B4
:102A7C002368324649462046DB689847ECE7BD425E
:102A8C0005D02368294620469B687A1B984722214B
:102A9C002046FFF7ACFEBDE8F08700BF73330A0891
:102AAC0070B504460D461646FFF75EFF20463246CB
:102ABC002946FFF797FF02232046237170BD70B59E
:102ACC0004460D461646FFF74FFF20463246294670
:102ADC00FFF788FF01232046237170BD024B9868D5
:102AEC0008B1FDF777BF70475C040020172870B55C
:102AFC00044601D9002070BDA0F10D03022B0BD9A7
:102B0C00012824D800F0D6F80021007CFEF70AF842
:102B1C0080F00100C0B2EEE7124E3178BFF35B8F4C
:102B2C0011F001050DD13046FDF7C2FA48B1294626
:102B3C000D48FEF75FF93046FDF7BFFA0B4800F081
:102B4C00E1F8094B1878FEF711F80028D2D1123CA5
:102B5C00012C05D800F064F8007CFDF783FFD7E763
:102B6C000120C8E7580400205C040020E92A0A0868
:102B7C00172838B504460D460AD8FF2908D0FFF7A8
:102B8C00B5FF28B129462046BDE83840FDF7E2BE26
:102B9C0038BD38B504460D46FDF7E4FEFF2810D0CD
:102BAC00062804D84D2323FA00F0C30709D4204685
:102BBC00FFF79CFF28B129462046BDE83840FDF7B9
:102BCC00D9BE38BD10B50446FDF7CCFE031FDBB2F1
:102BDC00012B08D92046FFF789FF20B12046BDE81C
:102BEC001040FDF7CFBE002010BD704770B5142506
:102BFC0004462A46002100F0C3F825808025074EA4
:102C0C00284631462581258200F07AF831466060ED
:102C1C00284600F075F8E060204670BD79330A084C
:102C2C0030B50E4D87B02978BFF35B8F11F00104DE
:102C3C0011D12846FDF73CFA68B101A8FFF7D6FF81
:102C4C00214601AA0648FFF7F1FB2846FDF735FAA5
:102C5C00044800F057F8024807B030BD6804002063
:102C6C006C040020F72B0A08002307B51A461946F6
:102C7C0000930348FFF7C4FA03B05DF804FB00BFF0
:102C8C00840400207047000070B514232025084EE2
:102C9C0004460360314685600561284600F030F833
:102CAC0031466060284600F02BF8E060204670BD8D
:102CBC0079330A0830B50E4D87B02978BFF35B8F96
:102CCC0011F0010411D12846FDF7F2F968B101A801
:102CDC00FFF7DAFF214601AA0648FFF7F1FB284669
:102CEC00FDF7EBF9044800F00DF8024807B030BDD1
:102CFC009C040020A0040020912C0A08FDF7C5B903
:102D0C00FDF7C5B9002301461A46184600F05CB918
:102D1C00024B0A460146186800F03AB80C00002035
:102D2C00024B0344587800F0970070470E340A08A1
:102D3C000A44914200F1FF3300D1704710B511F8ED
:102D4C00014B914203F8014FF9D110BD884210B5E7
:102D5C0001EB020402D98442234607D8431EA14248
:102D6C0008D011F8012B03F8012FF8E701460244B3
:102D7C008A4200D110BD13F8014D02F8014DF7E75E
:102D8C0003460244934200D1704703F8011BF9E754
:102D9C0038B502FB01F52946FEF70CF8044618B1CC
:102DAC002A460021FFF7ECFF204638BD38B5104B02
:102DBC0004461D68AB6BB3B91820FDF7DBFF024668
:102DCC00A86320B942210B4B0B48FEF703F80B49C3
:102DDC000B4BC0E900130B4B002183600B23838149
:102DEC000120C2E904010022AB6B1C615A6138BDA1
:102DFC000C0000207A330A0891330A080E33CDAB4D
:102E0C0034126DE6ECDE05000346C9B2184613F821
:102E1C00012B12B18A42F9D17047002918BF00204A
:102E2C00704710B50446FFF7EFFF18B9204600F0C5
:102E3C0014F8204410BD10F8012B11F8013B012AA5
:102E4C0028BF9A42F7D0D01A7047034611F8012BCD
:102E5C0003F8012B002AF9D17047034613F8012B14
:102E6C00002AFBD1181A01387047034610B572B10D
:102E7C000139841813F8010B11F8012F904201D17C
:102E8C00A34201D1801A10BD0028F3D1FAE71046F5
:102E9C00F9E738B503460C4669B9BDE83840FFF789
:102EAC00B3BF0546431C21461846FFF7ADFF00286B
:102EBC00F7D1284638BD0025F5E70000012B2DE998
:102ECC00F047804601D0242B06D9FDF77BFF162353
:102EDC0003600020BDE8F0870D46354F284615F8F5
:102EEC00014BE65D16F00806F8D12D2C2FD10126EA
:102EFC002C78851C002B57D0102B09D1302C07D1E6
:102F0C00287800F0DF00582849D110236C7802355E
:102F1C00002706F1004E0EF1FF3EBEFBF3F93846DA
:102F2C0003FB19EAA4F1300CBCF1090F14D8644668
:102F3C00A34222DD002F1DDB81451BD301D1A2450D
:102F4C0018DB012700FB034015F8014BEAE72B2C9B
:102F5C0004BF2C78851CCDE7A4F1410CBCF1190FF2
:102F6C0001D8373CE4E7A4F1610CBCF1190F04D88B
:102F7C00573CDDE74FF0FF37E6E7002F07DA222357
:102F8C007046C8F80030002AA4D0691E05E006B1CE
:102F9C004042002A9ED0002FF7D111609AE73024CE
:102FAC00002BB5D10823B3E7302CA9D00A23AFE707
:102FBC000F340A0813460A46014602480068FFF718
:102FCC007DBF00BF0C0000202DE9F843DFF8AC807A
:102FDC000646D8F800001F460D46914600F058F8FA
:102FEC00274B1C6834B9274C1C60274B13B11B684A
:102FFC00C4F8883063681F2B07DDD8F8000000F098
:10300C0049F84FF0FF30BDE8F8835EB3D4F8880080
:10301C0088B91E4B23B9D8F8000000F03AF8F0E755
:10302C004FF48470FDF7A6FE0028F4D00023C0E90D
:10303C004033C4F8880001226368022E40F82390C4
:10304C0002FA03F200EB8301D0F8003143EA0203E9
:10305C00C0F80031C1F8807002BFD0F804311343BE
:10306C00C0F804316368D8F800005A1C023362605F
:10307C0044F8235000F00EF80020C4E77000002044
:10308C0040050020B404002000000000810D0A0857
:10309C0070477047704700001D000A085D000A0861
:1030AC0085000A0889000A080000000043616C6C66
:1030BC00206F6E2070757265207669727475616C04
:1030CC00004E554C4C006576656E743D257320643E
:1030DC006174613D257300416C65727400537461B9
:1030EC007274656400583A20256400593A202564AE
:1030FC00005A3A2025640000000000000000000087
:10310C000000000000000000A5000A08CD000A081D
:10311C000000000000000000D9000A080D010A0898
:10312C00B91C0A08CF000A083F065B4F666D7D0785
:10313C007F6F777C395E7971010000000A00000016
:10314C0064000000E803000062617564005365725E
:10315C0069616C0055534253657269616C31004A68
:10316C00534F4E53747265616D4C6F6748616E645A
:10317C006C65720061707000253031307520005D17
:10318C0020002C200028293A2000205B00636F646B
:10319C0065203D200025690064657461696C7320AD
:1031AC003D20000D0A006D0066006C6E00666E001E
:1031BC00636F64650064657461696C0000000000F5
:1031CC00000000007F100A08A5100A0863100A0806
:1031DC0063270A08000000000000000065150A08BB
:1031EC007D150A08B91C0A08CF000A080000000067
:1031FC000000000091150A08A5150A08611E0A08AE
:10320C006B100A0800000000000000007D100A0886
:10321C00B3100A081D1C0A086D100A0800000000F3
:10322C00000000007B100A08C1100A0885140A0867
:10323C00E3100A0825592D256D2D25645425483A8F
:10324C00254D3A2553257A0061736374696D6500C9
:10325C0000000000000000005F210A085D210A0840
:10326C0091210A0800000000000000002B220A082F
:10327C0091220A0869220A085D0F0A085B220A08D3
:10328C002D220A083D220A088B220A084D220A0820
:10329C0025220A080000000000000000C1230A08D3
:1032AC0029240A0805240A085D0F0A08D5230A08F0
:1032BC00F1230A08E3230A08FF230A08C3230A0898
:1032CC00C7230A08000000000000000075240A084B
:1032DC00BF240A0897240A0877240A089F240A089E
:1032EC00A7240A08AF240A08B7240A080000000023
:1032FC00000000003B260A0831260A0827260A0887
:10330C0099250A081B260A080F260A0899260A0876
:10331C00A1260A0803260A08FB250A08F1250A0833
:10332C00E7250A08A3250A08000000000000000099
:10333C0059260A0863260A086D260A0877260A0801
:10334C0081260A088D260A0899260A08A1260A0849
:10335C00A9260A08B5260A08BD260A08C7260A089F
:10336C00D1260A08257500752530347800005245A1
:10337C00454E54206D616C6C6F632073756363658F
:10338C0065646564002F6D6E742F776F726B73704C
:10339C006163652F776F726B73706163652F474341
:1033AC00432D31302D706970656C696E652F6A65BF
:1033BC006E6B696E732D4743432D31302D706970E0
:1033CC00656C696E652D34385F3230323031313294
:1033DC00345F313630363138303634312F737263D6
:1033EC002F6E65776C69622F6E65776C69622F6CD6
:1033FC006962632F7374646C69622F72616E642EE0
:10340C00630000202020202020202020282828288D
:10341C002820202020202020202020202020202098
:10342C0020202088101010101010101010101010E8
:10343C0010101004040404040404040404101010F8
:10344C0010101010414141414141010101010101A4
:10345C000101010101010101010101010101101032
:10346C001010101042424242424202020202020278
:10347C000202020202020202020202020202101004
:10348C0010102000000000000000000000000000F0
:10349C000000000000000000000000000000000020
:1034AC000000000000000000000000000000000010
:1034BC000000000000000000000000000000000000
:1034CC0000000000000000000000000000000000F0
:1034DC0000000000000000000000000000000000E0
:1034EC0000000000000000000000000000000000D0
:1034FC0000000000000000000000000000000000C0
:10350C000000000035040A08210E0A08A91C0A084C
:10351C00D51F0A08F11F0A0845260A0821270A08A0
:04352C00752C0A08E8
:043530000000000097
:1035340018320A0830320A0854320A0810000020EF
:103544000000000000000000000000000000000077
:103554000000000000000000000000000000000067
:103564000000000000000000000000000000000057
:103574000000000000000000000000000000000047
:103584000000000000000000000000000000000037
:103594000000000000000000000000000000000027
:0435A40044050020BA
:1035A800FFFFFFFF00000102030405060708090AE0
:1035B8000B0C0D0E0F101112131415161718191ADB
:0835C8001B1C1D1E1F20280022
:0435D00078563412E3
:04000005080A001CC9
:00000001FF
